{
  "_format": "hh-sol-artifact-1",
  "contractName": "ZCloakPoap",
  "sourceName": "contracts/ZcloakPoap.sol",
  "abi": [
    {
      "inputs": [
        {
          "internalType": "string",
          "name": "_uri",
          "type": "string"
        },
        {
          "internalType": "address",
          "name": "_registry",
          "type": "address"
        }
      ],
      "stateMutability": "nonpayable",
      "type": "constructor"
    },
    {
      "anonymous": false,
      "inputs": [
        {
          "indexed": true,
          "internalType": "address",
          "name": "account",
          "type": "address"
        },
        {
          "indexed": true,
          "internalType": "address",
          "name": "operator",
          "type": "address"
        },
        {
          "indexed": false,
          "internalType": "bool",
          "name": "approved",
          "type": "bool"
        }
      ],
      "name": "ApprovalForAll",
      "type": "event"
    },
    {
      "anonymous": false,
      "inputs": [
        {
          "indexed": false,
          "internalType": "uint128",
          "name": "identifier",
          "type": "uint128"
        },
        {
          "indexed": false,
          "internalType": "uint256",
          "name": "supply",
          "type": "uint256"
        }
      ],
      "name": "MintAClass",
      "type": "event"
    },
    {
      "anonymous": false,
      "inputs": [
        {
          "indexed": false,
          "internalType": "uint128",
          "name": "poapId",
          "type": "uint128"
        },
        {
          "indexed": false,
          "internalType": "address",
          "name": "who",
          "type": "address"
        },
        {
          "indexed": false,
          "internalType": "uint256",
          "name": "nftId",
          "type": "uint256"
        }
      ],
      "name": "MintPoap",
      "type": "event"
    },
    {
      "anonymous": false,
      "inputs": [
        {
          "indexed": true,
          "internalType": "address",
          "name": "previousOwner",
          "type": "address"
        },
        {
          "indexed": true,
          "internalType": "address",
          "name": "newOwner",
          "type": "address"
        }
      ],
      "name": "OwnershipTransferred",
      "type": "event"
    },
    {
      "anonymous": false,
      "inputs": [
        {
          "indexed": false,
          "internalType": "address",
          "name": "account",
          "type": "address"
        }
      ],
      "name": "Paused",
      "type": "event"
    },
    {
      "anonymous": false,
      "inputs": [
        {
          "indexed": true,
          "internalType": "address",
          "name": "operator",
          "type": "address"
        },
        {
          "indexed": true,
          "internalType": "address",
          "name": "from",
          "type": "address"
        },
        {
          "indexed": true,
          "internalType": "address",
          "name": "to",
          "type": "address"
        },
        {
          "indexed": false,
          "internalType": "uint256[]",
          "name": "ids",
          "type": "uint256[]"
        },
        {
          "indexed": false,
          "internalType": "uint256[]",
          "name": "values",
          "type": "uint256[]"
        }
      ],
      "name": "TransferBatch",
      "type": "event"
    },
    {
      "anonymous": false,
      "inputs": [
        {
          "indexed": true,
          "internalType": "address",
          "name": "operator",
          "type": "address"
        },
        {
          "indexed": true,
          "internalType": "address",
          "name": "from",
          "type": "address"
        },
        {
          "indexed": true,
          "internalType": "address",
          "name": "to",
          "type": "address"
        },
        {
          "indexed": false,
          "internalType": "uint256",
          "name": "id",
          "type": "uint256"
        },
        {
          "indexed": false,
          "internalType": "uint256",
          "name": "value",
          "type": "uint256"
        }
      ],
      "name": "TransferSingle",
      "type": "event"
    },
    {
      "anonymous": false,
      "inputs": [
        {
          "indexed": false,
          "internalType": "string",
          "name": "value",
          "type": "string"
        },
        {
          "indexed": true,
          "internalType": "uint256",
          "name": "id",
          "type": "uint256"
        }
      ],
      "name": "URI",
      "type": "event"
    },
    {
      "anonymous": false,
      "inputs": [
        {
          "indexed": false,
          "internalType": "address",
          "name": "account",
          "type": "address"
        }
      ],
      "name": "Unpaused",
      "type": "event"
    },
    {
      "inputs": [],
      "name": "CONTRACT_AGGREGATOR",
      "outputs": [
        {
          "internalType": "bytes32",
          "name": "",
          "type": "bytes32"
        }
      ],
      "stateMutability": "view",
      "type": "function"
    },
    {
      "inputs": [],
      "name": "CONTRACT_MAIN_KILT",
      "outputs": [
        {
          "internalType": "bytes32",
          "name": "",
          "type": "bytes32"
        }
      ],
      "stateMutability": "view",
      "type": "function"
    },
    {
      "inputs": [],
      "name": "CONTRACT_POAP_FACTORY",
      "outputs": [
        {
          "internalType": "bytes32",
          "name": "",
          "type": "bytes32"
        }
      ],
      "stateMutability": "view",
      "type": "function"
    },
    {
      "inputs": [],
      "name": "CONTRACT_READ_GATEWAY",
      "outputs": [
        {
          "internalType": "bytes32",
          "name": "",
          "type": "bytes32"
        }
      ],
      "stateMutability": "view",
      "type": "function"
    },
    {
      "inputs": [],
      "name": "CONTRACT_REPUTATION",
      "outputs": [
        {
          "internalType": "bytes32",
          "name": "",
          "type": "bytes32"
        }
      ],
      "stateMutability": "view",
      "type": "function"
    },
    {
      "inputs": [],
      "name": "CONTRACT_REQUEST",
      "outputs": [
        {
          "internalType": "bytes32",
          "name": "",
          "type": "bytes32"
        }
      ],
      "stateMutability": "view",
      "type": "function"
    },
    {
      "inputs": [],
      "name": "CONTRACT_REWARD",
      "outputs": [
        {
          "internalType": "bytes32",
          "name": "",
          "type": "bytes32"
        }
      ],
      "stateMutability": "view",
      "type": "function"
    },
    {
      "inputs": [],
      "name": "UINT32_MIN_COMMIT",
      "outputs": [
        {
          "internalType": "bytes32",
          "name": "",
          "type": "bytes32"
        }
      ],
      "stateMutability": "view",
      "type": "function"
    },
    {
      "inputs": [],
      "name": "UINT32_THRESHOLD",
      "outputs": [
        {
          "internalType": "bytes32",
          "name": "",
          "type": "bytes32"
        }
      ],
      "stateMutability": "view",
      "type": "function"
    },
    {
      "inputs": [
        {
          "internalType": "address",
          "name": "account",
          "type": "address"
        },
        {
          "internalType": "uint256",
          "name": "id",
          "type": "uint256"
        }
      ],
      "name": "balanceOf",
      "outputs": [
        {
          "internalType": "uint256",
          "name": "",
          "type": "uint256"
        }
      ],
      "stateMutability": "view",
      "type": "function"
    },
    {
      "inputs": [
        {
          "internalType": "address[]",
          "name": "accounts",
          "type": "address[]"
        },
        {
          "internalType": "uint256[]",
          "name": "ids",
          "type": "uint256[]"
        }
      ],
      "name": "balanceOfBatch",
      "outputs": [
        {
          "internalType": "uint256[]",
          "name": "",
          "type": "uint256[]"
        }
      ],
      "stateMutability": "view",
      "type": "function"
    },
    {
      "inputs": [],
      "name": "claim",
      "outputs": [],
      "stateMutability": "nonpayable",
      "type": "function"
    },
    {
      "inputs": [
        {
          "internalType": "uint128",
          "name": "_poapId",
          "type": "uint128"
        }
      ],
      "name": "getNftId",
      "outputs": [
        {
          "internalType": "uint256",
          "name": "",
          "type": "uint256"
        }
      ],
      "stateMutability": "view",
      "type": "function"
    },
    {
      "inputs": [
        {
          "internalType": "address",
          "name": "account",
          "type": "address"
        },
        {
          "internalType": "address",
          "name": "operator",
          "type": "address"
        }
      ],
      "name": "isApprovedForAll",
      "outputs": [
        {
          "internalType": "bool",
          "name": "",
          "type": "bool"
        }
      ],
      "stateMutability": "view",
      "type": "function"
    },
    {
      "inputs": [],
      "name": "owner",
      "outputs": [
        {
          "internalType": "address",
          "name": "",
          "type": "address"
        }
      ],
      "stateMutability": "view",
      "type": "function"
    },
    {
      "inputs": [],
      "name": "pause",
      "outputs": [],
      "stateMutability": "nonpayable",
      "type": "function"
    },
    {
      "inputs": [],
      "name": "paused",
      "outputs": [
        {
          "internalType": "bool",
          "name": "",
          "type": "bool"
        }
      ],
      "stateMutability": "view",
      "type": "function"
    },
    {
      "inputs": [],
      "name": "registry",
      "outputs": [
        {
          "internalType": "contract IRegistry",
          "name": "",
          "type": "address"
        }
      ],
      "stateMutability": "view",
      "type": "function"
    },
    {
      "inputs": [],
      "name": "renounceOwnership",
      "outputs": [],
      "stateMutability": "nonpayable",
      "type": "function"
    },
    {
      "inputs": [
        {
          "internalType": "address",
          "name": "from",
          "type": "address"
        },
        {
          "internalType": "address",
          "name": "to",
          "type": "address"
        },
        {
          "internalType": "uint256[]",
          "name": "ids",
          "type": "uint256[]"
        },
        {
          "internalType": "uint256[]",
          "name": "amounts",
          "type": "uint256[]"
        },
        {
          "internalType": "bytes",
          "name": "data",
          "type": "bytes"
        }
      ],
      "name": "safeBatchTransferFrom",
      "outputs": [],
      "stateMutability": "nonpayable",
      "type": "function"
    },
    {
      "inputs": [
        {
          "internalType": "address",
          "name": "from",
          "type": "address"
        },
        {
          "internalType": "address",
          "name": "to",
          "type": "address"
        },
        {
          "internalType": "uint256",
          "name": "id",
          "type": "uint256"
        },
        {
          "internalType": "uint256",
          "name": "amount",
          "type": "uint256"
        },
        {
          "internalType": "bytes",
          "name": "data",
          "type": "bytes"
        }
      ],
      "name": "safeTransferFrom",
      "outputs": [],
      "stateMutability": "nonpayable",
      "type": "function"
    },
    {
      "inputs": [
        {
          "internalType": "address",
          "name": "operator",
          "type": "address"
        },
        {
          "internalType": "bool",
          "name": "approved",
          "type": "bool"
        }
      ],
      "name": "setApprovalForAll",
      "outputs": [],
      "stateMutability": "nonpayable",
      "type": "function"
    },
    {
      "inputs": [
        {
          "internalType": "bytes4",
          "name": "interfaceId",
          "type": "bytes4"
        }
      ],
      "name": "supportsInterface",
      "outputs": [
        {
          "internalType": "bool",
          "name": "",
          "type": "bool"
        }
      ],
      "stateMutability": "view",
      "type": "function"
    },
    {
      "inputs": [
        {
          "internalType": "uint128",
          "name": "",
          "type": "uint128"
        },
        {
          "internalType": "address",
          "name": "",
          "type": "address"
        }
      ],
      "name": "totalBalanceOf",
      "outputs": [
        {
          "internalType": "uint256",
          "name": "",
          "type": "uint256"
        }
      ],
      "stateMutability": "view",
      "type": "function"
    },
    {
      "inputs": [
        {
          "internalType": "address",
          "name": "newOwner",
          "type": "address"
        }
      ],
      "name": "transferOwnership",
      "outputs": [],
      "stateMutability": "nonpayable",
      "type": "function"
    },
    {
      "inputs": [],
      "name": "unPause",
      "outputs": [],
      "stateMutability": "nonpayable",
      "type": "function"
    },
    {
      "inputs": [
        {
          "internalType": "uint256",
          "name": "",
          "type": "uint256"
        }
      ],
      "name": "uri",
      "outputs": [
        {
          "internalType": "string",
          "name": "",
          "type": "string"
        }
      ],
      "stateMutability": "view",
      "type": "function"
    }
  ],
  "bytecode": "0x60806040523480156200001157600080fd5b5060405162002a4938038062002a49833981016040819052620000349162000253565b8162000040816200008c565b506003805460ff191690556200005f62000059620000a5565b620000a9565b600480546001600160a01b0319166001600160a01b0383161790556200008462000103565b5050620003c8565b8051620000a190600290602084019062000190565b5050565b3390565b600380546001600160a01b03838116610100818102610100600160a81b031985161790945560405193909204169182907f8be0079c531659141344cd1fd0a4f28419497f9722a3daafe3b4186f6b6457e090600090a35050565b6200010d62000187565b15620001365760405162461bcd60e51b81526004016200012d906200034b565b60405180910390fd5b6003805460ff191660011790557f62e78cea01bee320cd4e420270b5ea74000d11b0c9f74754ebdbfc544b05a2586200016e620000a5565b6040516200017d919062000337565b60405180910390a1565b60035460ff1690565b8280546200019e9062000375565b90600052602060002090601f016020900481019282620001c257600085556200020d565b82601f10620001dd57805160ff19168380011785556200020d565b828001600101855582156200020d579182015b828111156200020d578251825591602001919060010190620001f0565b506200021b9291506200021f565b5090565b5b808211156200021b576000815560010162000220565b80516001600160a01b03811681146200024e57600080fd5b919050565b6000806040838503121562000266578182fd5b82516001600160401b03808211156200027d578384fd5b818501915085601f83011262000291578384fd5b815181811115620002a657620002a6620003b2565b6040516020601f8301601f1916820181018481118382101715620002ce57620002ce620003b2565b6040528282528483018101891015620002e5578687fd5b8693505b82841015620003085784840181015182850182015292830192620002e9565b828411156200031957868184840101525b8196506200032981890162000236565b955050505050509250929050565b6001600160a01b0391909116815260200190565b60208082526010908201526f14185d5cd8589b194e881c185d5cd95960821b604082015260600190565b6002810460018216806200038a57607f821691505b60208210811415620003ac57634e487b7160e01b600052602260045260246000fd5b50919050565b634e487b7160e01b600052604160045260246000fd5b61267180620003d86000396000f3fe608060405234801561001057600080fd5b50600436106101b85760003560e01c806387f697e8116100f9578063e219eeff11610097578063f242432a11610071578063f242432a14610324578063f2fde38b14610337578063f7b188a51461034a578063fb3ecf2f14610352576101b8565b8063e219eeff146102f6578063e985e9c5146102fe578063ee21df4d14610311576101b8565b8063a22cb465116100d3578063a22cb465146102c0578063b9aa4ffc146102d3578063cf3008dc146102db578063d4b843ae146102e3576101b8565b806387f697e8146102a857806388cf66d5146102b05780638da5cb5b146102b8576101b8565b8063450c2e26116101665780635c975abb116101405780635c975abb1461027b578063715018a6146102835780637b1039991461028b5780638456cb59146102a0576101b8565b8063450c2e261461024b5780634e1273f4146102535780634e71d92d14610273576101b8565b80630e89341c116101975780630e89341c1461020e5780632eb2c2d61461022e57806336874d3114610243576101b8565b8062fdd58e146101bd57806301ffc9a7146101e6578063071ee77714610206575b600080fd5b6101d06101cb36600461199c565b61035a565b6040516101dd9190611dc4565b60405180910390f35b6101f96101f4366004611b4f565b6103b1565b6040516101dd9190611db9565b6101d0610429565b61022161021c366004611bc0565b61044d565b6040516101dd9190611dcd565b61024161023c36600461185e565b6104e1565b005b6101d061053f565b6101d0610563565b6102666102613660046119c7565b610587565b6040516101dd9190611d78565b6102416106a7565b6101f9610a51565b610241610a5b565b610293610aa6565b6040516101dd9190611c5d565b610241610ab5565b6101d0610afc565b6101d0610b20565b610293610b44565b6102416102ce36600461196f565b610b58565b6101d0610b6e565b6101d0610b92565b6101d06102f1366004611ba3565b610bb6565b6101d0610bd3565b6101f961030c366004611826565b610bf7565b6101d061031f366004611b87565b610c25565b610241610332366004611908565b610c7c565b6102416103453660046117e7565b610cd3565b610241610d44565b6101d0610d8b565b60006001600160a01b03831661038b5760405162461bcd60e51b815260040161038290611ed1565b60405180910390fd5b506000908152602081815260408083206001600160a01b03949094168352929052205490565b60006001600160e01b031982167fd9b67a2600000000000000000000000000000000000000000000000000000000148061041457506001600160e01b031982167f0e89341c00000000000000000000000000000000000000000000000000000000145b80610423575061042382610daf565b92915050565b7f434f4e54524143545f524557415244000000000000000000000000000000000081565b60606002805461045c90612499565b80601f016020809104026020016040519081016040528092919081815260200182805461048890612499565b80156104d55780601f106104aa576101008083540402835291602001916104d5565b820191906000526020600020905b8154815290600101906020018083116104b857829003601f168201915b50505050509050919050565b6104e9610de1565b6001600160a01b0316856001600160a01b0316148061050f575061050f8561030c610de1565b61052b5760405162461bcd60e51b81526004016103829061217e565b6105388585858585610de5565b5050505050565b7f434f4e54524143545f524541445f47415445574159000000000000000000000081565b7f434f4e54524143545f4d41494e5f4b494c54000000000000000000000000000081565b606081518351146105aa5760405162461bcd60e51b8152600401610382906122ca565b6000835167ffffffffffffffff8111156105d457634e487b7160e01b600052604160045260246000fd5b6040519080825280602002602001820160405280156105fd578160200160208202803683370190505b50905060005b845181101561069f5761066485828151811061062f57634e487b7160e01b600052603260045260246000fd5b602002602001015185838151811061065757634e487b7160e01b600052603260045260246000fd5b602002602001015161035a565b82828151811061068457634e487b7160e01b600052603260045260246000fd5b6020908102919091010152610698816124fb565b9050610603565b509392505050565b6106af610de1565b6106c1816001600160a01b0316610fb6565b156106de5760405162461bcd60e51b81526004016103829061207c565b60006106e8610de1565b60048054604051632ecd14d360e21b81529293506000926001600160a01b039091169163bb34534c9161073d917f434f4e54524143545f504f41505f464143544f525900000000000000000000009101611dc4565b60206040518083038186803b15801561075557600080fd5b505afa158015610769573d6000803e3d6000fd5b505050506040513d601f19601f8201168201806040525081019061078d919061180a565b60048054604051632ecd14d360e21b81529293506000926001600160a01b039091169163bb34534c916107e2917f434f4e54524143545f524541445f4741544557415900000000000000000000009101611dc4565b60206040518083038186803b1580156107fa57600080fd5b505afa15801561080e573d6000803e3d6000fd5b505050506040513d601f19601f82011682018060405250810190610832919061180a565b90506000826001600160a01b0316632604c7fe306040518263ffffffff1660e01b81526004016108629190611c5d565b60206040518083038186803b15801561087a57600080fd5b505afa15801561088e573d6000803e3d6000fd5b505050506040513d601f19601f820116820180604052508101906108b29190611b37565b9050600080836001600160a01b03166352459e6887856040518363ffffffff1660e01b81526004016108e5929190611d12565b60006040518083038186803b1580156108fd57600080fd5b505afa158015610911573d6000803e3d6000fd5b505050506040513d6000823e601f3d908101601f191682016040526109399190810190611a87565b915091508161095a5760405162461bcd60e51b8152600401610382906120b3565b60008160405160200161096d9190611d2b565b60408051601f1981840301815291905280516020909101209050608081901c600061099782610c25565b6001600160801b03831660009081526006602090815260408083206001600160a01b038e168452909152902054909150156109e45760405162461bcd60e51b815260040161038290611fe8565b610a008982600160405180602001604052806000815250610fbc565b610a0a828a6110ab565b7f5a2a318cd6208e1e038d7e9060b080d8be16e9a422d6af1ab74eb648b53f189b828a83604051610a3d939291906123e1565b60405180910390a150505050505050505050565b60035460ff165b90565b610a63610de1565b6001600160a01b0316610a74610b44565b6001600160a01b031614610a9a5760405162461bcd60e51b815260040161038290612238565b610aa46000611185565b565b6004546001600160a01b031681565b610abd610de1565b6001600160a01b0316610ace610b44565b6001600160a01b031614610af45760405162461bcd60e51b815260040161038290612238565b610aa46111f6565b7f434f4e54524143545f524551554553540000000000000000000000000000000081565b7f434f4e54524143545f504f41505f464143544f5259000000000000000000000081565b60035461010090046001600160a01b031690565b610b6a610b63610de1565b8383611268565b5050565b7f434f4e54524143545f41474752454741544f520000000000000000000000000081565b7f55494e5433325f5448524553484f4c440000000000000000000000000000000081565b600660209081526000928352604080842090915290825290205481565b7f434f4e54524143545f52455055544154494f4e0000000000000000000000000081565b6001600160a01b03918216600090815260016020908152604080832093909416825291909152205460ff1690565b6001600160801b0380821660009081526005602052604081205490917fffffffffffffffffffffffffffffffff00000000000000000000000000000000608085901b169116610c748183612481565b949350505050565b610c84610de1565b6001600160a01b0316856001600160a01b03161480610caa5750610caa8561030c610de1565b610cc65760405162461bcd60e51b81526004016103829061201f565b610538858585858561130b565b610cdb610de1565b6001600160a01b0316610cec610b44565b6001600160a01b031614610d125760405162461bcd60e51b815260040161038290612238565b6001600160a01b038116610d385760405162461bcd60e51b815260040161038290611f2e565b610d4181611185565b50565b610d4c610de1565b6001600160a01b0316610d5d610b44565b6001600160a01b031614610d835760405162461bcd60e51b815260040161038290612238565b610aa461143f565b7f55494e5433325f4d494e5f434f4d4d495400000000000000000000000000000081565b6001600160e01b031981167f01ffc9a70000000000000000000000000000000000000000000000000000000014919050565b3390565b8151835114610e065760405162461bcd60e51b815260040161038290612327565b6001600160a01b038416610e2c5760405162461bcd60e51b815260040161038290612121565b6000610e36610de1565b9050610e46818787878787611496565b60005b8451811015610f48576000858281518110610e7457634e487b7160e01b600052603260045260246000fd5b602002602001015190506000858381518110610ea057634e487b7160e01b600052603260045260246000fd5b602090810291909101810151600084815280835260408082206001600160a01b038e168352909352919091205490915081811015610ef05760405162461bcd60e51b8152600401610382906121db565b6000838152602081815260408083206001600160a01b038e8116855292528083208585039055908b16825281208054849290610f2d908490612481565b9250508190555050505080610f41906124fb565b9050610e49565b50846001600160a01b0316866001600160a01b0316826001600160a01b03167f4a39dc06d4c0dbc64b70af90fd698a233a518aa5d07e595d983b8c0526c8f7fb8787604051610f98929190611d8b565b60405180910390a4610fae8187878787876114d8565b505050505050565b3b151590565b6001600160a01b038416610fe25760405162461bcd60e51b815260040161038290612384565b6000610fec610de1565b905061100d81600087610ffe886115e6565b611007886115e6565b87611496565b6000848152602081815260408083206001600160a01b03891684529091528120805485929061103d908490612481565b92505081905550846001600160a01b031660006001600160a01b0316826001600160a01b03167fc3d58168c5ae7397731d063d5bbf3d657854427343f4c083240f7aacaa2d0f628787604051611094929190612425565b60405180910390a46105388160008787878761163f565b6001600160801b038083166000908152600560205260408120805490921691906110d4836124d4565b82546101009290920a6001600160801b03818102199093169183160217909155831660009081526006602090815260408083206001600160a01b038616845290915281208054925090611126836124fb565b90915550506001600160801b03808316600090815260056020526040908190205490517f2c3bf5c2df4a0f54ef8f9448383414384591033997887f4c8f6b757c4828fad39261117992869291169061240b565b60405180910390a15050565b600380546001600160a01b038381166101008181027fffffffffffffffffffffff0000000000000000000000000000000000000000ff85161790945560405193909204169182907f8be0079c531659141344cd1fd0a4f28419497f9722a3daafe3b4186f6b6457e090600090a35050565b6111fe610a51565b1561121b5760405162461bcd60e51b8152600401610382906120ea565b6003805460ff191660011790557f62e78cea01bee320cd4e420270b5ea74000d11b0c9f74754ebdbfc544b05a258611251610de1565b60405161125e9190611c5d565b60405180910390a1565b816001600160a01b0316836001600160a01b0316141561129a5760405162461bcd60e51b81526004016103829061226d565b6001600160a01b0383811660008181526001602090815260408083209487168084529490915290819020805460ff1916851515179055517f17307eab39ab6107e8899845ad3d59bd9653f200f220920489ca2b5937696c31906112fe908590611db9565b60405180910390a3505050565b6001600160a01b0384166113315760405162461bcd60e51b815260040161038290612121565b600061133b610de1565b905061134c818787610ffe886115e6565b6000848152602081815260408083206001600160a01b038a1684529091529020548381101561138d5760405162461bcd60e51b8152600401610382906121db565b6000858152602081815260408083206001600160a01b038b81168552925280832087850390559088168252812080548692906113ca908490612481565b92505081905550856001600160a01b0316876001600160a01b0316836001600160a01b03167fc3d58168c5ae7397731d063d5bbf3d657854427343f4c083240f7aacaa2d0f628888604051611420929190612425565b60405180910390a461143682888888888861163f565b50505050505050565b611447610a51565b6114635760405162461bcd60e51b815260040161038290611e9a565b6003805460ff191690557f5db9ee0a495bf2e6ff9c91a7834c1ba4fdd244a5e8aa4e537bd38aeae4b073aa611251610de1565b6114a4868686868686610fae565b6001600160a01b03851615610fae576114bb610a51565b15610fae5760405162461bcd60e51b815260040161038290611f8b565b6114ea846001600160a01b0316610fb6565b15610fae5760405163bc197c8160e01b81526001600160a01b0385169063bc197c81906115239089908990889088908890600401611c71565b602060405180830381600087803b15801561153d57600080fd5b505af192505050801561156d575060408051601f3d908101601f1916820190925261156a91810190611b6b565b60015b6115b657611579612548565b80611584575061159e565b8060405162461bcd60e51b81526004016103829190611dcd565b60405162461bcd60e51b815260040161038290611de0565b6001600160e01b0319811663bc197c8160e01b146114365760405162461bcd60e51b815260040161038290611e3d565b6040805160018082528183019092526060916000919060208083019080368337019050509050828160008151811061162e57634e487b7160e01b600052603260045260246000fd5b602090810291909101015292915050565b611651846001600160a01b0316610fb6565b15610fae5760405163f23a6e6160e01b81526001600160a01b0385169063f23a6e619061168a9089908990889088908890600401611ccf565b602060405180830381600087803b1580156116a457600080fd5b505af19250505080156116d4575060408051601f3d908101601f191682019092526116d191810190611b6b565b60015b6116e057611579612548565b6001600160e01b0319811663f23a6e6160e01b146114365760405162461bcd60e51b815260040161038290611e3d565b600082601f830112611720578081fd5b813560206117356117308361245d565b612433565b8281528181019085830183850287018401881015611751578586fd5b855b8581101561176f57813584529284019290840190600101611753565b5090979650505050505050565b600082601f83011261178c578081fd5b813567ffffffffffffffff8111156117a6576117a661252c565b6117b9601f8201601f1916602001612433565b8181528460208386010111156117cd578283fd5b816020850160208301379081016020019190915292915050565b6000602082840312156117f8578081fd5b8135611803816125ed565b9392505050565b60006020828403121561181b578081fd5b8151611803816125ed565b60008060408385031215611838578081fd5b8235611843816125ed565b91506020830135611853816125ed565b809150509250929050565b600080600080600060a08688031215611875578081fd5b8535611880816125ed565b94506020860135611890816125ed565b9350604086013567ffffffffffffffff808211156118ac578283fd5b6118b889838a01611710565b945060608801359150808211156118cd578283fd5b6118d989838a01611710565b935060808801359150808211156118ee578283fd5b506118fb8882890161177c565b9150509295509295909350565b600080600080600060a0868803121561191f578081fd5b853561192a816125ed565b9450602086013561193a816125ed565b93506040860135925060608601359150608086013567ffffffffffffffff811115611963578182fd5b6118fb8882890161177c565b60008060408385031215611981578182fd5b823561198c816125ed565b9150602083013561185381612602565b600080604083850312156119ae578182fd5b82356119b9816125ed565b946020939093013593505050565b600080604083850312156119d9578182fd5b823567ffffffffffffffff808211156119f0578384fd5b818501915085601f830112611a03578384fd5b81356020611a136117308361245d565b82815281810190858301838502870184018b1015611a2f578889fd5b8896505b84871015611a5a578035611a46816125ed565b835260019690960195918301918301611a33565b5096505086013592505080821115611a70578283fd5b50611a7d85828601611710565b9150509250929050565b60008060408385031215611a99578182fd5b8251611aa481612602565b8092505060208084015167ffffffffffffffff811115611ac2578283fd5b8401601f81018613611ad2578283fd5b8051611ae06117308261245d565b81815283810190838501858402850186018a1015611afc578687fd5b8694505b83851015611b27578051611b1381612626565b835260019490940193918501918501611b00565b5080955050505050509250929050565b600060208284031215611b48578081fd5b5051919050565b600060208284031215611b60578081fd5b813561180381612610565b600060208284031215611b7c578081fd5b815161180381612610565b600060208284031215611b98578081fd5b813561180381612626565b60008060408385031215611bb5578182fd5b823561184381612626565b600060208284031215611bd1578081fd5b5035919050565b6000815180845260208085019450808401835b83811015611c0757815187529582019590820190600101611beb565b509495945050505050565b60008151808452815b81811015611c3757602081850181015186830182015201611c1b565b81811115611c485782602083870101525b50601f01601f19169290920160200192915050565b6001600160a01b0391909116815260200190565b60006001600160a01b03808816835280871660208401525060a06040830152611c9d60a0830186611bd8565b8281036060840152611caf8186611bd8565b90508281036080840152611cc38185611c12565b98975050505050505050565b60006001600160a01b03808816835280871660208401525084604083015283606083015260a06080830152611d0760a0830184611c12565b979650505050505050565b6001600160a01b03929092168252602082015260400190565b6020808252825182820181905260009190848201906040850190845b81811015611d6c5783516001600160801b031683529284019291840191600101611d47565b50909695505050505050565b6000602082526118036020830184611bd8565b600060408252611d9e6040830185611bd8565b8281036020840152611db08185611bd8565b95945050505050565b901515815260200190565b90815260200190565b6000602082526118036020830184611c12565b60208082526034908201527f455243313135353a207472616e7366657220746f206e6f6e204552433131353560408201527f526563656976657220696d706c656d656e746572000000000000000000000000606082015260800190565b60208082526028908201527f455243313135353a204552433131353552656365697665722072656a6563746560408201527f6420746f6b656e73000000000000000000000000000000000000000000000000606082015260800190565b60208082526014908201527f5061757361626c653a206e6f7420706175736564000000000000000000000000604082015260600190565b6020808252602b908201527f455243313135353a2062616c616e636520717565727920666f7220746865207a60408201527f65726f2061646472657373000000000000000000000000000000000000000000606082015260800190565b60208082526026908201527f4f776e61626c653a206e6577206f776e657220697320746865207a65726f206160408201527f6464726573730000000000000000000000000000000000000000000000000000606082015260800190565b6020808252602c908201527f455243313135355061757361626c653a20746f6b656e207472616e736665722060408201527f7768696c65207061757365640000000000000000000000000000000000000000606082015260800190565b60208082526017908201527f596f75206861766520616c7265616479206d696e746564000000000000000000604082015260600190565b60208082526029908201527f455243313135353a2063616c6c6572206973206e6f74206f776e6572206e6f7260408201527f20617070726f7665640000000000000000000000000000000000000000000000606082015260800190565b6020808252601f908201527f4d73672073656e646572206d7573742062652068756d616e206265696e672e00604082015260600190565b6020808252601a908201527f7a6b43726564656e7469616c206d7573742062652076616c6964000000000000604082015260600190565b60208082526010908201527f5061757361626c653a2070617573656400000000000000000000000000000000604082015260600190565b60208082526025908201527f455243313135353a207472616e7366657220746f20746865207a65726f20616460408201527f6472657373000000000000000000000000000000000000000000000000000000606082015260800190565b60208082526032908201527f455243313135353a207472616e736665722063616c6c6572206973206e6f742060408201527f6f776e6572206e6f7220617070726f7665640000000000000000000000000000606082015260800190565b6020808252602a908201527f455243313135353a20696e73756666696369656e742062616c616e636520666f60408201527f72207472616e7366657200000000000000000000000000000000000000000000606082015260800190565b6020808252818101527f4f776e61626c653a2063616c6c6572206973206e6f7420746865206f776e6572604082015260600190565b60208082526029908201527f455243313135353a2073657474696e6720617070726f76616c2073746174757360408201527f20666f722073656c660000000000000000000000000000000000000000000000606082015260800190565b60208082526029908201527f455243313135353a206163636f756e747320616e6420696473206c656e67746860408201527f206d69736d617463680000000000000000000000000000000000000000000000606082015260800190565b60208082526028908201527f455243313135353a2069647320616e6420616d6f756e7473206c656e6774682060408201527f6d69736d61746368000000000000000000000000000000000000000000000000606082015260800190565b60208082526021908201527f455243313135353a206d696e7420746f20746865207a65726f2061646472657360408201527f7300000000000000000000000000000000000000000000000000000000000000606082015260800190565b6001600160801b039390931683526001600160a01b03919091166020830152604082015260600190565b6001600160801b0392831681529116602082015260400190565b918252602082015260400190565b60405181810167ffffffffffffffff811182821017156124555761245561252c565b604052919050565b600067ffffffffffffffff8211156124775761247761252c565b5060209081020190565b6000821982111561249457612494612516565b500190565b6002810460018216806124ad57607f821691505b602082108114156124ce57634e487b7160e01b600052602260045260246000fd5b50919050565b60006001600160801b03808316818114156124f1576124f1612516565b6001019392505050565b600060001982141561250f5761250f612516565b5060010190565b634e487b7160e01b600052601160045260246000fd5b634e487b7160e01b600052604160045260246000fd5b60e01c90565b600060443d101561255857610a58565b600481823e6308c379a061256c8251612542565b1461257657610a58565b6040513d600319016004823e80513d67ffffffffffffffff81602484011181841117156125a65750505050610a58565b828401925082519150808211156125c05750505050610a58565b503d830160208284010111156125d857505050610a58565b601f01601f1916810160200160405291505090565b6001600160a01b0381168114610d4157600080fd5b8015158114610d4157600080fd5b6001600160e01b031981168114610d4157600080fd5b6001600160801b0381168114610d4157600080fdfea2646970667358221220c4127480973053334131e5af193d0562cffbcaa538ceb7bead92bf3d3865ebd764736f6c63430008000033",
  "linkReferences": {},
  "deployedLinkReferences": {}
}