{
  "_format": "hh-sol-artifact-1",
  "contractName": "ProofStorage",
  "sourceName": "contracts/ProofStorage.sol",
  "abi": [
    {
      "inputs": [
        {
          "internalType": "contract IRegistry",
          "name": "_registry",
          "type": "address"
        }
      ],
      "stateMutability": "nonpayable",
      "type": "constructor"
    },
    {
      "anonymous": false,
      "inputs": [
        {
          "indexed": false,
          "internalType": "address",
          "name": "dataOwner",
          "type": "address"
        },
        {
          "indexed": false,
          "internalType": "bytes32",
          "name": "attester",
          "type": "bytes32"
        },
        {
          "indexed": false,
          "internalType": "bytes32",
          "name": "cType",
          "type": "bytes32"
        },
        {
          "indexed": false,
          "internalType": "bytes32",
          "name": "programHash",
          "type": "bytes32"
        },
        {
          "indexed": false,
          "internalType": "uint128[]",
          "name": "fieldNames",
          "type": "uint128[]"
        },
        {
          "indexed": false,
          "internalType": "string",
          "name": "proofCid",
          "type": "string"
        },
        {
          "indexed": false,
          "internalType": "bytes32",
          "name": "requestHash",
          "type": "bytes32"
        },
        {
          "indexed": false,
          "internalType": "bytes32",
          "name": "rootHash",
          "type": "bytes32"
        },
        {
          "indexed": false,
          "internalType": "uint128[]",
          "name": "expectResult",
          "type": "uint128[]"
        }
      ],
      "name": "AddProof",
      "type": "event"
    },
    {
      "anonymous": false,
      "inputs": [
        {
          "indexed": true,
          "internalType": "address",
          "name": "authority",
          "type": "address"
        }
      ],
      "name": "LogSetAuthority",
      "type": "event"
    },
    {
      "anonymous": false,
      "inputs": [
        {
          "indexed": true,
          "internalType": "address",
          "name": "owner",
          "type": "address"
        }
      ],
      "name": "LogSetOwner",
      "type": "event"
    },
    {
      "anonymous": false,
      "inputs": [
        {
          "indexed": false,
          "internalType": "address",
          "name": "account",
          "type": "address"
        }
      ],
      "name": "Paused",
      "type": "event"
    },
    {
      "anonymous": false,
      "inputs": [
        {
          "indexed": false,
          "internalType": "address",
          "name": "account",
          "type": "address"
        }
      ],
      "name": "Unpaused",
      "type": "event"
    },
    {
      "anonymous": false,
      "inputs": [
        {
          "indexed": false,
          "internalType": "address",
          "name": "dataOwner",
          "type": "address"
        },
        {
          "indexed": false,
          "internalType": "bytes32",
          "name": "kiltAccount",
          "type": "bytes32"
        },
        {
          "indexed": false,
          "internalType": "bytes32",
          "name": "requestHash",
          "type": "bytes32"
        },
        {
          "indexed": false,
          "internalType": "string",
          "name": "proofCid",
          "type": "string"
        }
      ],
      "name": "UpdateProof",
      "type": "event"
    },
    {
      "inputs": [],
      "name": "CONTRACT_AGGREGATOR",
      "outputs": [
        {
          "internalType": "bytes32",
          "name": "",
          "type": "bytes32"
        }
      ],
      "stateMutability": "view",
      "type": "function"
    },
    {
      "inputs": [],
      "name": "CONTRACT_MAIN_KILT",
      "outputs": [
        {
          "internalType": "bytes32",
          "name": "",
          "type": "bytes32"
        }
      ],
      "stateMutability": "view",
      "type": "function"
    },
    {
      "inputs": [],
      "name": "CONTRACT_POAP_FACTORY",
      "outputs": [
        {
          "internalType": "bytes32",
          "name": "",
          "type": "bytes32"
        }
      ],
      "stateMutability": "view",
      "type": "function"
    },
    {
      "inputs": [],
      "name": "CONTRACT_READ_GATEWAY",
      "outputs": [
        {
          "internalType": "bytes32",
          "name": "",
          "type": "bytes32"
        }
      ],
      "stateMutability": "view",
      "type": "function"
    },
    {
      "inputs": [],
      "name": "CONTRACT_REPUTATION",
      "outputs": [
        {
          "internalType": "bytes32",
          "name": "",
          "type": "bytes32"
        }
      ],
      "stateMutability": "view",
      "type": "function"
    },
    {
      "inputs": [],
      "name": "CONTRACT_REQUEST",
      "outputs": [
        {
          "internalType": "bytes32",
          "name": "",
          "type": "bytes32"
        }
      ],
      "stateMutability": "view",
      "type": "function"
    },
    {
      "inputs": [],
      "name": "CONTRACT_REWARD",
      "outputs": [
        {
          "internalType": "bytes32",
          "name": "",
          "type": "bytes32"
        }
      ],
      "stateMutability": "view",
      "type": "function"
    },
    {
      "inputs": [],
      "name": "NULL",
      "outputs": [
        {
          "internalType": "bytes32",
          "name": "",
          "type": "bytes32"
        }
      ],
      "stateMutability": "view",
      "type": "function"
    },
    {
      "inputs": [],
      "name": "UINT32_MIN_COMMIT",
      "outputs": [
        {
          "internalType": "bytes32",
          "name": "",
          "type": "bytes32"
        }
      ],
      "stateMutability": "view",
      "type": "function"
    },
    {
      "inputs": [],
      "name": "UINT32_THRESHOLD",
      "outputs": [
        {
          "internalType": "bytes32",
          "name": "",
          "type": "bytes32"
        }
      ],
      "stateMutability": "view",
      "type": "function"
    },
    {
      "inputs": [
        {
          "internalType": "bytes32",
          "name": "_kiltAccount",
          "type": "bytes32"
        },
        {
          "internalType": "bytes32",
          "name": "_attester",
          "type": "bytes32"
        },
        {
          "internalType": "bytes32",
          "name": "_cType",
          "type": "bytes32"
        },
        {
          "internalType": "uint128[]",
          "name": "_fieldNames",
          "type": "uint128[]"
        },
        {
          "internalType": "bytes32",
          "name": "_programHash",
          "type": "bytes32"
        },
        {
          "internalType": "string",
          "name": "_proofCid",
          "type": "string"
        },
        {
          "internalType": "bytes32",
          "name": "_rootHash",
          "type": "bytes32"
        },
        {
          "internalType": "uint128[]",
          "name": "_expResult",
          "type": "uint128[]"
        }
      ],
      "name": "addProof",
      "outputs": [],
      "stateMutability": "nonpayable",
      "type": "function"
    },
    {
      "inputs": [],
      "name": "authority",
      "outputs": [
        {
          "internalType": "contract IAuthority",
          "name": "",
          "type": "address"
        }
      ],
      "stateMutability": "view",
      "type": "function"
    },
    {
      "inputs": [
        {
          "internalType": "address",
          "name": "",
          "type": "address"
        },
        {
          "internalType": "bytes32",
          "name": "",
          "type": "bytes32"
        }
      ],
      "name": "fatProofs",
      "outputs": [
        {
          "internalType": "string",
          "name": "proofCid",
          "type": "string"
        }
      ],
      "stateMutability": "view",
      "type": "function"
    },
    {
      "inputs": [
        {
          "internalType": "bytes32",
          "name": "",
          "type": "bytes32"
        }
      ],
      "name": "kiltAddr2Addr",
      "outputs": [
        {
          "internalType": "address",
          "name": "",
          "type": "address"
        }
      ],
      "stateMutability": "view",
      "type": "function"
    },
    {
      "inputs": [],
      "name": "owner",
      "outputs": [
        {
          "internalType": "address",
          "name": "",
          "type": "address"
        }
      ],
      "stateMutability": "view",
      "type": "function"
    },
    {
      "inputs": [],
      "name": "pause",
      "outputs": [],
      "stateMutability": "nonpayable",
      "type": "function"
    },
    {
      "inputs": [],
      "name": "paused",
      "outputs": [
        {
          "internalType": "bool",
          "name": "",
          "type": "bool"
        }
      ],
      "stateMutability": "view",
      "type": "function"
    },
    {
      "inputs": [],
      "name": "registry",
      "outputs": [
        {
          "internalType": "contract IRegistry",
          "name": "",
          "type": "address"
        }
      ],
      "stateMutability": "view",
      "type": "function"
    },
    {
      "inputs": [
        {
          "internalType": "address",
          "name": "_authority",
          "type": "address"
        }
      ],
      "name": "setAuthority",
      "outputs": [],
      "stateMutability": "nonpayable",
      "type": "function"
    },
    {
      "inputs": [
        {
          "internalType": "address",
          "name": "owner_",
          "type": "address"
        }
      ],
      "name": "setOwner",
      "outputs": [],
      "stateMutability": "nonpayable",
      "type": "function"
    },
    {
      "inputs": [
        {
          "internalType": "address",
          "name": "_who",
          "type": "address"
        },
        {
          "internalType": "bytes32",
          "name": "_requestHash",
          "type": "bytes32"
        }
      ],
      "name": "single_proof_exists",
      "outputs": [
        {
          "internalType": "bool",
          "name": "",
          "type": "bool"
        }
      ],
      "stateMutability": "view",
      "type": "function"
    },
    {
      "inputs": [],
      "name": "unPause",
      "outputs": [],
      "stateMutability": "nonpayable",
      "type": "function"
    },
    {
      "inputs": [
        {
          "internalType": "bytes32",
          "name": "_kiltAccount",
          "type": "bytes32"
        },
        {
          "internalType": "bytes32",
          "name": "_requestHash",
          "type": "bytes32"
        },
        {
          "internalType": "string",
          "name": "_proofCid",
          "type": "string"
        },
        {
          "internalType": "bytes32",
          "name": "_rootHash",
          "type": "bytes32"
        },
        {
          "internalType": "uint128[]",
          "name": "_expResult",
          "type": "uint128[]"
        }
      ],
      "name": "updateProof",
      "outputs": [],
      "stateMutability": "nonpayable",
      "type": "function"
    }
  ],
  "bytecode": "0x60806040523480156200001157600080fd5b5060405162001d4738038062001d47833981016040819052620000349162000155565b600180546001600160a01b031916339081179091556040517fce241d7ca1f669fee44b6fc00b8eba2df3bb514eed0f6f668f8f89096e81ed9490600090a26001805460ff60a01b19169055600280546001600160a01b0319166001600160a01b038316179055620000b0620000b7602090811b62000e0b17901c565b50620001c3565b620000c162000141565b15620000ea5760405162461bcd60e51b8152600401620000e19062000199565b60405180910390fd5b6001805460ff60a01b1916600160a01b1790557f62e78cea01bee320cd4e420270b5ea74000d11b0c9f74754ebdbfc544b05a2586200012862000151565b60405162000137919062000185565b60405180910390a1565b600154600160a01b900460ff1690565b3390565b60006020828403121562000167578081fd5b81516001600160a01b03811681146200017e578182fd5b9392505050565b6001600160a01b0391909116815260200190565b60208082526010908201526f14185d5cd8589b194e881c185d5cd95960821b604082015260600190565b611b7480620001d36000396000f3fe608060405234801561001057600080fd5b506004361061018d5760003560e01c806388cf66d5116100e3578063e120b0481161008c578063f26be3fc11610066578063f26be3fc146102be578063f7b188a5146102c6578063fb3ecf2f146102ce5761018d565b8063e120b04814610290578063e219eeff146102a3578063e6831062146102ab5761018d565b8063b9aa4ffc116100bd578063b9aa4ffc14610278578063bf7e214f14610280578063cf3008dc146102885761018d565b806388cf66d5146102555780638da5cb5b1461025d5780638f684622146102655761018d565b80635c975abb116101455780637b1039991161011f5780637b103999146102305780638456cb591461024557806387f697e81461024d5761018d565b80635c975abb146101f5578063680cc6da1461020a5780637a9e5e4b1461021d5761018d565b806336874d311161017657806336874d31146101c55780633fcf9951146101cd578063450c2e26146101ed5761018d565b8063071ee7771461019257806313af4035146101b0575b600080fd5b61019a6102d6565b6040516101a791906117e5565b60405180910390f35b6101c36101be366004611243565b6102fa565b005b61019a6103aa565b6101e06101db366004611282565b6103ce565b6040516101a791906117ee565b61019a610477565b6101fd61049b565b6040516101a791906117da565b6101c36102183660046113ca565b6104ab565b6101c361022b366004611243565b610820565b6102386108bf565b6040516101a7919061166c565b6101c36108ce565b61019a6108ef565b61019a610906565b61023861092a565b6101c36102733660046112fd565b610939565b61019a610ce1565b610238610d05565b61019a610d14565b61023861029e3660046112cd565b610d38565b61019a610d53565b6101fd6102b9366004611282565b610d77565b61019a610dc3565b6101c3610dc8565b61019a610de7565b7f434f4e54524143545f524557415244000000000000000000000000000000000081565b610328336000357fffffffff0000000000000000000000000000000000000000000000000000000016610e83565b61034d5760405162461bcd60e51b815260040161034490611969565b60405180910390fd5b6001805473ffffffffffffffffffffffffffffffffffffffff19166001600160a01b0383811691909117918290556040519116907fce241d7ca1f669fee44b6fc00b8eba2df3bb514eed0f6f668f8f89096e81ed9490600090a250565b7f434f4e54524143545f524541445f47415445574159000000000000000000000081565b60046020908152600092835260408084209091529082529020805481906103f490611ab7565b80601f016020809104026020016040519081016040528092919081815260200182805461042090611ab7565b801561046d5780601f106104425761010080835404028352916020019161046d565b820191906000526020600020905b81548152906001019060200180831161045057829003601f168201915b5050505050905081565b7f434f4e54524143545f4d41494e5f4b494c54000000000000000000000000000081565b600154600160a01b900460ff1690565b6104b361049b565b156104d05760405162461bcd60e51b815260040161034490611932565b6104e16104db610f60565b86610d77565b6104fd5760405162461bcd60e51b815260040161034490611878565b600254604051632ecd14d360e21b81526000916001600160a01b03169063bb34534c90610541906f10d3d395149050d517d49154555154d560821b906004016117e5565b60206040518083038186803b15801561055957600080fd5b505afa15801561056d573d6000803e3d6000fd5b505050506040513d601f19601f820116820180604052508101906105919190611266565b90506000816001600160a01b031663f3470d7d886040518263ffffffff1660e01b81526004016105c191906117e5565b60006040518083038186803b1580156105d957600080fd5b505afa1580156105ed573d6000803e3d6000fd5b505050506040513d6000823e601f3d908101601f1916820160405261061591908101906114b1565b80519091506106365760405162461bcd60e51b8152600401610344906118d5565b610682610641610f60565b8988888080601f0160208091040260200160405190810160405280939291908181526020018383808284376000920191909152508d9250899150610f649050565b600254604051632ecd14d360e21b81526000916001600160a01b03169063bb34534c906106d3907f434f4e54524143545f41474752454741544f5200000000000000000000000000906004016117e5565b60206040518083038186803b1580156106eb57600080fd5b505afa1580156106ff573d6000803e3d6000fd5b505050506040513d601f19601f820116820180604052508101906107239190611266565b9050806001600160a01b03166388c9999a61073c610f60565b8a6040518363ffffffff1660e01b815260040161075a9291906116c5565b602060405180830381600087803b15801561077457600080fd5b505af1158015610788573d6000803e3d6000fd5b505050506040513d601f19601f820116820180604052508101906107ac91906112ad565b6107b557600080fd5b7f48180ffedc2dc5bc12e13ab317afeee498f2d4a6a65e833bcc2c31b4e1cb101d6107de610f60565b83606001518460000151856040015186602001518c8c8f8d8d60405161080d9a9998979695949392919061175e565b60405180910390a1505050505050505050565b61084e336000357fffffffff0000000000000000000000000000000000000000000000000000000016610e83565b61086a5760405162461bcd60e51b815260040161034490611969565b6000805473ffffffffffffffffffffffffffffffffffffffff19166001600160a01b038316908117825560405190917f1abebea81bfa2637f28358c371278fb15ede7ea8dd28d2e03b112ff6d936ada491a250565b6002546001600160a01b031681565b6001546001600160a01b031633146108e557600080fd5b6108ed610e0b565b565b6f10d3d395149050d517d49154555154d560821b81565b7f434f4e54524143545f504f41505f464143544f5259000000000000000000000081565b6001546001600160a01b031681565b600254604051632ecd14d360e21b81526000916001600160a01b03169063bb34534c9061097d906f10d3d395149050d517d49154555154d560821b906004016117e5565b60206040518083038186803b15801561099557600080fd5b505afa1580156109a9573d6000803e3d6000fd5b505050506040513d601f19601f820116820180604052508101906109cd9190611266565b9050600060405180608001604052808c81526020018b8b808060200260200160405190810160405280939291908181526020018383602002808284376000920182905250938552505050602082018b905260409182018f905290517faa72aa2e000000000000000000000000000000000000000000000000000000008152919250906001600160a01b0384169063aa72aa2e90610a6e908590600401611a23565b602060405180830381600087803b158015610a8857600080fd5b505af1158015610a9c573d6000803e3d6000fd5b505050506040513d601f19601f82011682018060405250810190610ac091906112e5565b9050610ad3610acd610f60565b82610d77565b15610af05760405162461bcd60e51b8152600401610344906119c6565b6040517f38a699a40000000000000000000000000000000000000000000000000000000081526001600160a01b038416906338a699a490610b359084906004016117e5565b60206040518083038186803b158015610b4d57600080fd5b505afa158015610b61573d6000803e3d6000fd5b505050506040513d601f19601f82011682018060405250810190610b8591906112ad565b610c01576040517f344091450000000000000000000000000000000000000000000000000000000081526001600160a01b03841690633440914590610bce908590600401611a23565b600060405180830381600087803b158015610be857600080fd5b505af1158015610bfc573d6000803e3d6000fd5b505050505b610c7d610c0c610f60565b8f8a8a8080601f01602080910402602001604051908101604052809392919081815260200183838082843760009201919091525050604080516020808d0282810182019093528c82528994509092508c918c91829190850190849080828437600092019190915250610f6492505050565b7f48180ffedc2dc5bc12e13ab317afeee498f2d4a6a65e833bcc2c31b4e1cb101d610ca6610f60565b8e8e8c8f8f8e8e898f8f8f604051610cc99c9b9a999897969594939291906116de565b60405180910390a15050505050505050505050505050565b7f434f4e54524143545f41474752454741544f520000000000000000000000000081565b6000546001600160a01b031681565b7f55494e5433325f5448524553484f4c440000000000000000000000000000000081565b6003602052600090815260409020546001600160a01b031681565b7f434f4e54524143545f52455055544154494f4e0000000000000000000000000081565b6001600160a01b0382166000908152600460209081526040808320848452909152812080548190610da790611ab7565b1580159150610db95750600181015415155b9150505b92915050565b600081565b6001546001600160a01b03163314610ddf57600080fd5b6108ed610ffd565b7f55494e5433325f4d494e5f434f4d4d495400000000000000000000000000000081565b610e1361049b565b15610e305760405162461bcd60e51b815260040161034490611932565b6001805460ff60a01b1916600160a01b1790557f62e78cea01bee320cd4e420270b5ea74000d11b0c9f74754ebdbfc544b05a258610e6c610f60565b604051610e79919061166c565b60405180910390a1565b6001546000906001600160a01b0384811691161415610ea457506001610dbd565b6000546001600160a01b0316610ebc57506000610dbd565b6000546040517fb70096130000000000000000000000000000000000000000000000000000000081526001600160a01b039091169063b700961390610f0990869030908790600401611680565b60206040518083038186803b158015610f2157600080fd5b505afa158015610f35573d6000803e3d6000fd5b505050506040513d601f19601f82011682018060405250810190610f5991906112ad565b9050610dbd565b3390565b6000848152600360209081526040808320805473ffffffffffffffffffffffffffffffffffffffff19166001600160a01b038a1690811790915583526004825280832085845282529091208451610fbd92860190611057565b506001600160a01b038516600090815260046020908152604080832085845282529091208251610ff5926001909201918401906110db565b505050505050565b61100561049b565b6110215760405162461bcd60e51b815260040161034490611841565b6001805460ff60a01b191690557f5db9ee0a495bf2e6ff9c91a7834c1ba4fdd244a5e8aa4e537bd38aeae4b073aa610e6c610f60565b82805461106390611ab7565b90600052602060002090601f01602090048101928261108557600085556110cb565b82601f1061109e57805160ff19168380011785556110cb565b828001600101855582156110cb579182015b828111156110cb5782518255916020019190600101906110b0565b506110d79291506111a5565b5090565b828054828255906000526020600020906001016002900481019282156110cb5791602002820160005b8382111561116057835183826101000a8154816fffffffffffffffffffffffffffffffff02191690836fffffffffffffffffffffffffffffffff1602179055509260200192601001602081600f01049283019260010302611104565b801561119c5782816101000a8154906fffffffffffffffffffffffffffffffff0219169055601001602081600f01049283019260010302611160565b50506110d79291505b5b808211156110d757600081556001016111a6565b60008083601f8401126111cb578182fd5b50813567ffffffffffffffff8111156111e2578182fd5b60208301915083602080830285010111156111fc57600080fd5b9250929050565b60008083601f840112611214578182fd5b50813567ffffffffffffffff81111561122b578182fd5b6020830191508360208285010111156111fc57600080fd5b600060208284031215611254578081fd5b813561125f81611b08565b9392505050565b600060208284031215611277578081fd5b815161125f81611b08565b60008060408385031215611294578081fd5b823561129f81611b08565b946020939093013593505050565b6000602082840312156112be578081fd5b8151801515811461125f578182fd5b6000602082840312156112de578081fd5b5035919050565b6000602082840312156112f6578081fd5b5051919050565b60008060008060008060008060008060006101008c8e03121561131e578687fd5b8b359a5060208c0135995060408c0135985067ffffffffffffffff8060608e01351115611349578788fd5b6113598e60608f01358f016111ba565b909950975060808d0135965060a08d0135811015611375578586fd5b6113858e60a08f01358f01611203565b909650945060c08d0135935060e08d01358110156113a1578283fd5b506113b28d60e08e01358e016111ba565b81935080925050509295989b509295989b9093969950565b60008060008060008060a087890312156113e2578182fd5b863595506020808801359550604088013567ffffffffffffffff80821115611408578485fd5b6114148b838c01611203565b909750955060608a0135945060808a0135915080821115611433578384fd5b508801601f81018a13611444578283fd5b803561145761145282611a93565b611a69565b81815283810190838501858402850186018e1015611473578687fd5b8694505b8385101561149e57803561148a81611b20565b835260019490940193918501918501611477565b5080955050505050509295509295509295565b600060208083850312156114c3578182fd5b825167ffffffffffffffff808211156114da578384fd5b90840190608082870312156114ed578384fd5b60405160808101818110838211171561150857611508611af2565b60405282518152838301518281111561151f578586fd5b83019150601f82018713611531578485fd5b815161153f61145282611a93565b81815285810190848701878402860188018b101561155b578889fd5b8895505b8386101561158657805161157281611b20565b83526001959095019491870191870161155f565b50808785015250505060408301516040820152606083015160608201528094505050505092915050565b60008284526020808501945082825b858110156115f65781356115d281611b20565b6fffffffffffffffffffffffffffffffff16875295820195908201906001016115bf565b509495945050505050565b6000815180845260208085019450808401835b838110156115f65781516fffffffffffffffffffffffffffffffff1687529582019590820190600101611614565b60008284528282602086013780602084860101526020601f19601f85011685010190509392505050565b6001600160a01b0391909116815260200190565b6001600160a01b0393841681529190921660208201527fffffffff00000000000000000000000000000000000000000000000000000000909116604082015260600190565b6001600160a01b03929092168252602082015260400190565b60006101206001600160a01b038f1683528d60208401528c60408401528b60608401528060808401526117148184018b8d6115b0565b905082810360a084015261172981898b611642565b90508660c08401528560e084015282810361010084015261174b8185876115b0565b9f9e505050505050505050505050505050565b60006101206001600160a01b038d1683528b60208401528a60408401528960608401528060808401526117938184018a611601565b905082810360a08401526117a881888a611642565b90508560c08401528460e08401528281036101008401526117c98185611601565b9d9c50505050505050505050505050565b901515815260200190565b90815260200190565b6000602080835283518082850152825b8181101561181a578581018301518582016040015282016117fe565b8181111561182b5783604083870101525b50601f01601f1916929092016040019392505050565b60208082526014908201527f5061757361626c653a206e6f7420706175736564000000000000000000000000604082015260600190565b60208082526037908201527f596f757220686176656e27742061646420796f75722070726f6f66206265666f60408201527f72652c20706c6561736520616464206974206669727374000000000000000000606082015260800190565b60208082526025908201527f72657175657374206861736820686173206e6f74206265656e20696e6974696160408201527f6c697a6564000000000000000000000000000000000000000000000000000000606082015260800190565b60208082526010908201527f5061757361626c653a2070617573656400000000000000000000000000000000604082015260600190565b60208082526031908201527f417574683a20796f752063616e206e6f74207061737320617574686f72697a6160408201527f74696f6e20766572696669636174696f6e000000000000000000000000000000606082015260800190565b6020808252603b908201527f596f75722070726f6f662068617320616c726561647920657869737465642c2060408201527f646f206e6f74206164642073616d652070726f6f6620616761696e0000000000606082015260800190565b60006020825282516020830152602083015160806040840152611a4960a0840182611601565b905060408401516060840152606084015160808401528091505092915050565b60405181810167ffffffffffffffff81118282101715611a8b57611a8b611af2565b604052919050565b600067ffffffffffffffff821115611aad57611aad611af2565b5060209081020190565b600281046001821680611acb57607f821691505b60208210811415611aec57634e487b7160e01b600052602260045260246000fd5b50919050565b634e487b7160e01b600052604160045260246000fd5b6001600160a01b0381168114611b1d57600080fd5b50565b6fffffffffffffffffffffffffffffffff81168114611b1d57600080fdfea26469706673582212204b252f3234e660556ef7d41263b519474b26ef578b59c2b886e28defb4bd1f2f64736f6c63430008000033",
  "linkReferences": {},
  "deployedLinkReferences": {}
}