{
  "_format": "hh-sol-artifact-1",
  "contractName": "SimpleAggregator",
  "sourceName": "contracts/SimpleAggregator.sol",
  "abi": [
    {
      "inputs": [
        {
          "internalType": "address",
          "name": "_registry",
          "type": "address"
        }
      ],
      "stateMutability": "nonpayable",
      "type": "constructor"
    },
    {
      "anonymous": false,
      "inputs": [
        {
          "indexed": false,
          "internalType": "address",
          "name": "cOwner",
          "type": "address"
        },
        {
          "indexed": false,
          "internalType": "bytes32",
          "name": "requestHash",
          "type": "bytes32"
        },
        {
          "indexed": false,
          "internalType": "bytes32",
          "name": "outputHash",
          "type": "bytes32"
        },
        {
          "indexed": false,
          "internalType": "bool",
          "name": "isPassed",
          "type": "bool"
        },
        {
          "indexed": false,
          "internalType": "uint128[]",
          "name": "calcOutput",
          "type": "uint128[]"
        }
      ],
      "name": "Canonical",
      "type": "event"
    },
    {
      "anonymous": false,
      "inputs": [
        {
          "indexed": true,
          "internalType": "address",
          "name": "authority",
          "type": "address"
        }
      ],
      "name": "LogSetAuthority",
      "type": "event"
    },
    {
      "anonymous": false,
      "inputs": [
        {
          "indexed": true,
          "internalType": "address",
          "name": "owner",
          "type": "address"
        }
      ],
      "name": "LogSetOwner",
      "type": "event"
    },
    {
      "anonymous": false,
      "inputs": [
        {
          "indexed": false,
          "internalType": "address",
          "name": "cOwner",
          "type": "address"
        },
        {
          "indexed": false,
          "internalType": "bytes32",
          "name": "requestHash",
          "type": "bytes32"
        },
        {
          "indexed": false,
          "internalType": "address",
          "name": "worker",
          "type": "address"
        },
        {
          "indexed": false,
          "internalType": "bytes32",
          "name": "outputHash",
          "type": "bytes32"
        },
        {
          "indexed": false,
          "internalType": "bytes32",
          "name": "rootHash",
          "type": "bytes32"
        },
        {
          "indexed": false,
          "internalType": "bytes32",
          "name": "attester",
          "type": "bytes32"
        },
        {
          "indexed": false,
          "internalType": "bool",
          "name": "isPassed",
          "type": "bool"
        },
        {
          "indexed": false,
          "internalType": "uint128[]",
          "name": "calcResult",
          "type": "uint128[]"
        }
      ],
      "name": "Verifying",
      "type": "event"
    },
    {
      "inputs": [],
      "name": "CONTRACT_AGGREGATOR",
      "outputs": [
        {
          "internalType": "bytes32",
          "name": "",
          "type": "bytes32"
        }
      ],
      "stateMutability": "view",
      "type": "function"
    },
    {
      "inputs": [],
      "name": "CONTRACT_MAIN_KILT",
      "outputs": [
        {
          "internalType": "bytes32",
          "name": "",
          "type": "bytes32"
        }
      ],
      "stateMutability": "view",
      "type": "function"
    },
    {
      "inputs": [],
      "name": "CONTRACT_POAP_FACTORY",
      "outputs": [
        {
          "internalType": "bytes32",
          "name": "",
          "type": "bytes32"
        }
      ],
      "stateMutability": "view",
      "type": "function"
    },
    {
      "inputs": [],
      "name": "CONTRACT_READ_GATEWAY",
      "outputs": [
        {
          "internalType": "bytes32",
          "name": "",
          "type": "bytes32"
        }
      ],
      "stateMutability": "view",
      "type": "function"
    },
    {
      "inputs": [],
      "name": "CONTRACT_REPUTATION",
      "outputs": [
        {
          "internalType": "bytes32",
          "name": "",
          "type": "bytes32"
        }
      ],
      "stateMutability": "view",
      "type": "function"
    },
    {
      "inputs": [],
      "name": "CONTRACT_REQUEST",
      "outputs": [
        {
          "internalType": "bytes32",
          "name": "",
          "type": "bytes32"
        }
      ],
      "stateMutability": "view",
      "type": "function"
    },
    {
      "inputs": [],
      "name": "CONTRACT_REWARD",
      "outputs": [
        {
          "internalType": "bytes32",
          "name": "",
          "type": "bytes32"
        }
      ],
      "stateMutability": "view",
      "type": "function"
    },
    {
      "inputs": [],
      "name": "UINT32_MIN_COMMIT",
      "outputs": [
        {
          "internalType": "bytes32",
          "name": "",
          "type": "bytes32"
        }
      ],
      "stateMutability": "view",
      "type": "function"
    },
    {
      "inputs": [],
      "name": "UINT32_THRESHOLD",
      "outputs": [
        {
          "internalType": "bytes32",
          "name": "",
          "type": "bytes32"
        }
      ],
      "stateMutability": "view",
      "type": "function"
    },
    {
      "inputs": [],
      "name": "authority",
      "outputs": [
        {
          "internalType": "contract IAuthority",
          "name": "",
          "type": "address"
        }
      ],
      "stateMutability": "view",
      "type": "function"
    },
    {
      "inputs": [
        {
          "internalType": "bytes32",
          "name": "_requestHash",
          "type": "bytes32"
        },
        {
          "internalType": "bytes32",
          "name": "_cType",
          "type": "bytes32"
        },
        {
          "internalType": "bytes32",
          "name": "_attester",
          "type": "bytes32"
        }
      ],
      "name": "checkAttestation",
      "outputs": [
        {
          "internalType": "bool",
          "name": "",
          "type": "bool"
        }
      ],
      "stateMutability": "view",
      "type": "function"
    },
    {
      "inputs": [
        {
          "internalType": "address",
          "name": "_cOwner",
          "type": "address"
        },
        {
          "internalType": "bytes32",
          "name": "_requestHash",
          "type": "bytes32"
        }
      ],
      "name": "clear",
      "outputs": [
        {
          "internalType": "bool",
          "name": "",
          "type": "bool"
        }
      ],
      "stateMutability": "nonpayable",
      "type": "function"
    },
    {
      "inputs": [
        {
          "internalType": "bytes32",
          "name": "_rootHash",
          "type": "bytes32"
        },
        {
          "internalType": "uint128[]",
          "name": "_calcOutput",
          "type": "uint128[]"
        },
        {
          "internalType": "bool",
          "name": "_isPassed",
          "type": "bool"
        },
        {
          "internalType": "bytes32",
          "name": "_attester",
          "type": "bytes32"
        }
      ],
      "name": "getOutputHash",
      "outputs": [
        {
          "internalType": "bytes32",
          "name": "oHash",
          "type": "bytes32"
        }
      ],
      "stateMutability": "pure",
      "type": "function"
    },
    {
      "inputs": [
        {
          "internalType": "address",
          "name": "_keeper",
          "type": "address"
        },
        {
          "internalType": "address",
          "name": "_cOwner",
          "type": "address"
        },
        {
          "internalType": "bytes32",
          "name": "_requestHash",
          "type": "bytes32"
        }
      ],
      "name": "hasSubmitted",
      "outputs": [
        {
          "internalType": "bool",
          "name": "",
          "type": "bool"
        }
      ],
      "stateMutability": "view",
      "type": "function"
    },
    {
      "inputs": [
        {
          "internalType": "address",
          "name": "_cOwner",
          "type": "address"
        },
        {
          "internalType": "bytes32",
          "name": "_requestHash",
          "type": "bytes32"
        }
      ],
      "name": "isFinished",
      "outputs": [
        {
          "internalType": "bool",
          "name": "",
          "type": "bool"
        }
      ],
      "stateMutability": "view",
      "type": "function"
    },
    {
      "inputs": [],
      "name": "owner",
      "outputs": [
        {
          "internalType": "address",
          "name": "",
          "type": "address"
        }
      ],
      "stateMutability": "view",
      "type": "function"
    },
    {
      "inputs": [],
      "name": "registry",
      "outputs": [
        {
          "internalType": "contract IRegistry",
          "name": "",
          "type": "address"
        }
      ],
      "stateMutability": "view",
      "type": "function"
    },
    {
      "inputs": [
        {
          "internalType": "address",
          "name": "_authority",
          "type": "address"
        }
      ],
      "name": "setAuthority",
      "outputs": [],
      "stateMutability": "nonpayable",
      "type": "function"
    },
    {
      "inputs": [
        {
          "internalType": "address",
          "name": "owner_",
          "type": "address"
        }
      ],
      "name": "setOwner",
      "outputs": [],
      "stateMutability": "nonpayable",
      "type": "function"
    },
    {
      "inputs": [
        {
          "internalType": "address",
          "name": "_cOwner",
          "type": "address"
        },
        {
          "internalType": "bytes32",
          "name": "_requestHash",
          "type": "bytes32"
        },
        {
          "internalType": "bytes32",
          "name": "_cType",
          "type": "bytes32"
        },
        {
          "internalType": "bytes32",
          "name": "_rootHash",
          "type": "bytes32"
        },
        {
          "internalType": "bool",
          "name": "_verifyRes",
          "type": "bool"
        },
        {
          "internalType": "bytes32",
          "name": "_attester",
          "type": "bytes32"
        },
        {
          "internalType": "uint128[]",
          "name": "_calcOutput",
          "type": "uint128[]"
        }
      ],
      "name": "submit",
      "outputs": [],
      "stateMutability": "nonpayable",
      "type": "function"
    },
    {
      "inputs": [
        {
          "internalType": "address",
          "name": "_who",
          "type": "address"
        },
        {
          "internalType": "bytes32",
          "name": "_requestHash",
          "type": "bytes32"
        }
      ],
      "name": "zkID",
      "outputs": [
        {
          "internalType": "bool",
          "name": "",
          "type": "bool"
        },
        {
          "internalType": "uint128[]",
          "name": "",
          "type": "uint128[]"
        }
      ],
      "stateMutability": "view",
      "type": "function"
    }
  ],
  "bytecode": "0x608060405234801561001057600080fd5b506040516200227f3803806200227f83398101604081905261003191610094565b600180546001600160a01b031916339081179091556040517fce241d7ca1f669fee44b6fc00b8eba2df3bb514eed0f6f668f8f89096e81ed9490600090a2600280546001600160a01b0319166001600160a01b03929092169190911790556100c2565b6000602082840312156100a5578081fd5b81516001600160a01b03811681146100bb578182fd5b9392505050565b6121ad80620000d26000396000f3fe608060405234801561001057600080fd5b50600436106101775760003560e01c806388c9999a116100d8578063bf7e214f1161008c578063e219eeff11610066578063e219eeff146102a4578063e39e482e146102ac578063fb3ecf2f146102bf57610177565b8063bf7e214f14610281578063cf3008dc14610289578063d73f2ecc1461029157610177565b80638da5cb5b116100bd5780638da5cb5b1461025e578063b99107b414610266578063b9aa4ffc1461027957610177565b806388c9999a1461024357806388cf66d51461025657610177565b80634a1dc8311161012f5780637a9e5e4b116101145780637a9e5e4b146102135780637b1039991461022657806387f697e81461023b57610177565b80634a1dc831146101d257806352459e68146101f257610177565b806313cd47011161016057806313cd4701146101af57806336874d31146101c2578063450c2e26146101ca57610177565b8063071ee7771461017c57806313af40351461019a575b600080fd5b6101846102c7565b6040516101919190611e72565b60405180910390f35b6101ad6101a83660046119c7565b6102eb565b005b6101ad6101bd366004611a71565b610383565b6101846108b7565b6101846108db565b6101e56101e0366004611a06565b6108ff565b6040516101919190611e4c565b610205610200366004611a46565b6109cb565b604051610191929190611e57565b6101ad6102213660046119c7565b610ae6565b61022e610b6d565b6040516101919190611d6e565b610184610b7c565b6101e5610251366004611a46565b610ba0565b610184610df7565b61022e610e1b565b6101e5610274366004611b8b565b610e2a565b610184610f72565b61022e610f96565b610184610fa5565b6101e561029f366004611a46565b610fc9565b610184610ff6565b6101846102ba366004611b2c565b61101a565b610184611053565b7f434f4e54524143545f524557415244000000000000000000000000000000000081565b610301336000356001600160e01b031916611077565b6103265760405162461bcd60e51b815260040161031d90611fe0565b60405180910390fd5b6001805473ffffffffffffffffffffffffffffffffffffffff19166001600160a01b0383811691909117918290556040519116907fce241d7ca1f669fee44b6fc00b8eba2df3bb514eed0f6f668f8f89096e81ed9490600090a250565b610399336000356001600160e01b031916611077565b6103b55760405162461bcd60e51b815260040161031d90611fe0565b60006103c38583868661101a565b90506103d76103d0611154565b89896108ff565b156103f45760405162461bcd60e51b815260040161031d90611f83565b6103fe8888610fc9565b1561041b5760405162461bcd60e51b815260040161031d90611f26565b610426878785610e2a565b6104425760405162461bcd60e51b815260040161031d90611e92565b6001600160a01b03881660009081526003602090815260408083208a845290915290205463ffffffff16610567576002546040517f968b250f0000000000000000000000000000000000000000000000000000000081526000916001600160a01b03169063968b250f906104da907f55494e5433325f5448524553484f4c440000000000000000000000000000000090600401611e72565b60206040518083038186803b1580156104f257600080fd5b505afa158015610506573d6000803e3d6000fd5b505050506040513d601f19601f8201168201806040525081019061052a9190611cb5565b6001600160a01b038a1660009081526003602090815260408083208c84529091529020805463ffffffff191663ffffffff92909216919091179055505b61059b610572611154565b6001600160a01b038a1660009081526008602090815260408083208c8452909152902090611158565b6001600160a01b03881660009081526004602090815260408083208a8452825280832084845290915290206105d86105d1611154565b8290611158565b600281018054600191906000906105f690849063ffffffff166120d0565b825463ffffffff9182166101009390930a9283029190920219909116179055506001600160a01b03891660009081526005602090815260408083208b84529091529081902090517f7d1f647900000000000000000000000000000000000000000000000000000000815273__$f5c2669a572334ec85ca2c0ff0522cc13b$__91637d1f64799161068b91908690600401612074565b60206040518083038186803b1580156106a357600080fd5b505af41580156106b7573d6000803e3d6000fd5b505050506040513d601f19601f820116820180604052508101906106db9190611af8565b61070e576001600160a01b03891660009081526005602090815260408083208b8452909152902061070c90836111bc565b505b600254604051632ecd14d360e21b81526000916001600160a01b03169063bb34534c9061075f907f434f4e54524143545f52455055544154494f4e0000000000000000000000000090600401611e72565b60206040518083038186803b15801561077757600080fd5b505afa15801561078b573d6000803e3d6000fd5b505050506040513d601f19601f820116820180604052508101906107af91906119ea565b9050806001600160a01b031663105c63de8a6107c9611154565b6040518363ffffffff1660e01b81526004016107e6929190611e7b565b600060405180830381600087803b15801561080057600080fd5b505af1158015610814573d6000803e3d6000fd5b505050507f3202d9007a36721ff55921e4c0c34be39c0f96b59836af6f8c3777f6dfa036a48a8a610843611154565b868b8a8c8b60405161085c989796959493929190611daf565b60405180910390a16001600160a01b038a1660009081526003602090815260408083208c8452909152902054600283015463ffffffff9182169116106108ab576108ab898b888a85888a611213565b50505050505050505050565b7f434f4e54524143545f524541445f47415445574159000000000000000000000081565b7f434f4e54524143545f4d41494e5f4b494c54000000000000000000000000000081565b6001600160a01b038216600090815260086020908152604080832084845290915280822090517fcb9e94b800000000000000000000000000000000000000000000000000000000815273__$50c751e7fcd45a93b7eabc99e18cba289c$__9163cb9e94b89161097391908890600401611e7b565b60206040518083038186803b15801561098b57600080fd5b505af415801561099f573d6000803e3d6000fd5b505050506040513d601f19601f820116820180604052508101906109c39190611af8565b949350505050565b600060606109e5336000356001600160e01b031916611077565b610a015760405162461bcd60e51b815260040161031d90611fe0565b6001600160a01b0384166000908152600660209081526040808320868452825280832060020154808452600983528184206001018054835181860281018601909452808452919493909190830182828015610aad57602002820191906000526020600020906000905b82829054906101000a90046001600160801b03166001600160801b031681526020019060100190602082600f01049283019260010382029150808411610a6a5790505b505050506001600160a01b03979097166000908152600660209081526040808320988352979052959095205460ff169694955050505050565b610afc336000356001600160e01b031916611077565b610b185760405162461bcd60e51b815260040161031d90611fe0565b6000805473ffffffffffffffffffffffffffffffffffffffff19166001600160a01b038316908117825560405190917f1abebea81bfa2637f28358c371278fb15ede7ea8dd28d2e03b112ff6d936ada491a250565b6002546001600160a01b031681565b7f434f4e54524143545f524551554553540000000000000000000000000000000081565b6000610bb8336000356001600160e01b031916611077565b610bd45760405162461bcd60e51b815260040161031d90611fe0565b6001600160a01b03831660008181526003602090815260408083208684528252808320805463ffffffff19169055928252600581528282208583529052908120905b60405163a5b18e1f60e01b815273__$f5c2669a572334ec85ca2c0ff0522cc13b$__9063a5b18e1f90610c4d908590600401611e72565b60206040518083038186803b158015610c6557600080fd5b505af4158015610c79573d6000803e3d6000fd5b505050506040513d601f19601f82011682018060405250810190610c9d9190611b14565b811015610d93576001600160a01b03851660009081526004602081815260408084208885529091528083209051631f90b1dd60e01b815290929173__$f5c2669a572334ec85ca2c0ff0522cc13b$__91631f90b1dd91610d01918891889101612074565b60206040518083038186803b158015610d1957600080fd5b505af4158015610d2d573d6000803e3d6000fd5b505050506040513d601f19601f82011682018060405250810190610d519190611b14565b815260208101919091526040016000908120908181610d708282611864565b505050600201805463ffffffff1916905580610d8b816120f8565b915050610c16565b506001600160a01b03841660008181526006602090815260408083208784528252808320805460ff191681556001810184905560020183905592825260088152828220868352905290812090610de98282611864565b505060019150505b92915050565b7f434f4e54524143545f504f41505f464143544f5259000000000000000000000081565b6001546001600160a01b031681565b600254604051632ecd14d360e21b815260009182916001600160a01b039091169063bb34534c90610e7f907f434f4e54524143545f524551554553540000000000000000000000000000000090600401611e72565b60206040518083038186803b158015610e9757600080fd5b505afa158015610eab573d6000803e3d6000fd5b505050506040513d601f19601f82011682018060405250810190610ecf91906119ea565b90506000816001600160a01b031663f3470d7d876040518263ffffffff1660e01b8152600401610eff9190611e72565b60006040518083038186803b158015610f1757600080fd5b505afa158015610f2b573d6000803e3d6000fd5b505050506040513d6000823e601f3d908101601f19168201604052610f539190810190611bb6565b9050806060015184148015610f685750805185145b9695505050505050565b7f434f4e54524143545f41474752454741544f520000000000000000000000000081565b6000546001600160a01b031681565b7f55494e5433325f5448524553484f4c440000000000000000000000000000000081565b6001600160a01b039190911660009081526006602090815260408083209383529290522060010154151590565b7f434f4e54524143545f52455055544154494f4e0000000000000000000000000081565b6000848484846040516020016110339493929190611d1c565b604051602081830303815290604052805190602001209050949350505050565b7f55494e5433325f4d494e5f434f4d4d495400000000000000000000000000000081565b6001546000906001600160a01b038481169116141561109857506001610df1565b6000546001600160a01b03166110b057506000610df1565b6000546040517fb70096130000000000000000000000000000000000000000000000000000000081526001600160a01b039091169063b7009613906110fd90869030908790600401611d82565b60206040518083038186803b15801561111557600080fd5b505afa158015611129573d6000803e3d6000fd5b505050506040513d601f19601f8201168201806040525081019061114d9190611af8565b9050610df1565b3390565b6111628282611783565b1561116c576111b8565b815460018082018455600084815260208082208401805473ffffffffffffffffffffffffffffffffffffffff19166001600160a01b038716908117909155825291850190915260409020555b5050565b60006111c88383611802565b156111e55760405162461bcd60e51b815260040161031d90611eef565b5081546001808201845560008481526020808220840185905593815293810190925260409092209190915590565b6001600160a01b03861660009081526006602090815260408083208a84528252808320805460ff19168915151781554260018083019190915560029091018690558584526009835292208351611270939190910191840190611885565b506000848152600760205260409020546001600160a01b031615806112ae57506000848152600760205260409020546001600160a01b038781169116145b6112ca5760405162461bcd60e51b815260040161031d9061203d565b6000848152600760209081526040808320805473ffffffffffffffffffffffffffffffffffffffff19166001600160a01b038b169081179091558352600582528083208a84529091528120905b60405163a5b18e1f60e01b815273__$f5c2669a572334ec85ca2c0ff0522cc13b$__9063a5b18e1f9061134e908590600401611e72565b60206040518083038186803b15801561136657600080fd5b505af415801561137a573d6000803e3d6000fd5b505050506040513d601f19601f8201168201806040525081019061139e9190611b14565b81101561173957604051631f90b1dd60e01b8152849073__$f5c2669a572334ec85ca2c0ff0522cc13b$__90631f90b1dd906113e09086908690600401612074565b60206040518083038186803b1580156113f857600080fd5b505af415801561140c573d6000803e3d6000fd5b505050506040513d601f19601f820116820180604052508101906114309190611b14565b141561143b57611727565b6001600160a01b03881660009081526004602081815260408084208d85529091528083209051631f90b1dd60e01b81529091839173__$f5c2669a572334ec85ca2c0ff0522cc13b$__91631f90b1dd91611499918991899101612074565b60206040518083038186803b1580156114b157600080fd5b505af41580156114c5573d6000803e3d6000fd5b505050506040513d601f19601f820116820180604052508101906114e99190611b14565b8152602001908152602001600020600001905060005b6040517f365300c800000000000000000000000000000000000000000000000000000000815273__$50c751e7fcd45a93b7eabc99e18cba289c$__9063365300c89061154f908590600401611e72565b60206040518083038186803b15801561156757600080fd5b505af415801561157b573d6000803e3d6000fd5b505050506040513d601f19601f8201168201806040525081019061159f9190611b14565b811015611724576040517f41ef41f80000000000000000000000000000000000000000000000000000000081526001600160a01b0388169063a521d206908d9073__$50c751e7fcd45a93b7eabc99e18cba289c$__906341ef41f89061160b9088908890600401612074565b60206040518083038186803b15801561162357600080fd5b505af4158015611637573d6000803e3d6000fd5b505050506040513d601f19601f8201168201806040525081019061165b91906119ea565b6040518363ffffffff1660e01b8152600401611678929190611e7b565b600060405180830381600087803b15801561169257600080fd5b505af11580156116a6573d6000803e3d6000fd5b50505050866001600160a01b031663105c63de8c6116c2611154565b6040518363ffffffff1660e01b81526004016116df929190611e7b565b600060405180830381600087803b1580156116f957600080fd5b505af115801561170d573d6000803e3d6000fd5b50505050808061171c906120f8565b9150506114ff565b50505b80611731816120f8565b915050611317565b507fc31be9a0b2d5f1d065257c9b2bf62a5cc060d134732e5491f7d062b8704994058789858986604051611771959493929190611e0b565b60405180910390a15050505050505050565b815460009061179457506000610df1565b6001600160a01b038216600090815260018401602052604090205415158061114d5750816001600160a01b0316836000016000815481106117e557634e487b7160e01b600052603260045260246000fd5b6000918252602090912001546001600160a01b0316149050610df1565b815460009061181357506000610df1565b600082815260018401602052604090205415158061114d5750818360000160008154811061185157634e487b7160e01b600052603260045260246000fd5b9060005260206000200154149050610df1565b5080546000825590600052602060002090810190611882919061193d565b50565b8280548282559060005260206000209060010160029004810192821561192d5791602002820160005b838211156118f857835183826101000a8154816001600160801b0302191690836001600160801b031602179055509260200192601001602081600f010492830192600103026118ae565b801561192b5782816101000a8154906001600160801b030219169055601001602081600f010492830192600103026118f8565b505b5061193992915061193d565b5090565b5b80821115611939576000815560010161193e565b600082601f830112611962578081fd5b81356020611977611972836120ac565b612082565b8281528181019085830183850287018401881015611993578586fd5b855b858110156119ba5781356119a881612162565b84529284019290840190600101611995565b5090979650505050505050565b6000602082840312156119d8578081fd5b81356119e38161213f565b9392505050565b6000602082840312156119fb578081fd5b81516119e38161213f565b600080600060608486031215611a1a578182fd5b8335611a258161213f565b92506020840135611a358161213f565b929592945050506040919091013590565b60008060408385031215611a58578182fd5b8235611a638161213f565b946020939093013593505050565b600080600080600080600060e0888a031215611a8b578283fd5b8735611a968161213f565b96506020880135955060408801359450606088013593506080880135611abb81612154565b925060a0880135915060c088013567ffffffffffffffff811115611add578182fd5b611ae98a828b01611952565b91505092959891949750929550565b600060208284031215611b09578081fd5b81516119e381612154565b600060208284031215611b25578081fd5b5051919050565b60008060008060808587031215611b41578384fd5b84359350602085013567ffffffffffffffff811115611b5e578384fd5b611b6a87828801611952565b9350506040850135611b7b81612154565b9396929550929360600135925050565b600080600060608486031215611b9f578081fd5b505081359360208301359350604090920135919050565b60006020808385031215611bc8578182fd5b825167ffffffffffffffff80821115611bdf578384fd5b9084019060808287031215611bf2578384fd5b604051608081018181108382111715611c0d57611c0d612129565b604052825181528383015182811115611c24578586fd5b83019150601f82018713611c36578485fd5b8151611c44611972826120ac565b81815285810190848701878402860188018b1015611c60578889fd5b8895505b83861015611c8b578051611c7781612162565b835260019590950194918701918701611c64565b50808785015250505060408301516040820152606083015160608201528094505050505092915050565b600060208284031215611cc6578081fd5b815163ffffffff811681146119e3578182fd5b6000815180845260208085019450808401835b83811015611d115781516001600160801b031687529582019590820190600101611cec565b509495945050505050565b600085825260208083018651828801845b82811015611d525781516001600160801b031684529284019290840190600101611d2d565b50505094151560f81b8552505050600182015260210192915050565b6001600160a01b0391909116815260200190565b6001600160a01b0393841681529190921660208201526001600160e01b0319909116604082015260600190565b60006101006001600160a01b03808c1684528a6020850152808a166040850152508760608401528660808401528560a084015284151560c08401528060e0840152611dfc81840185611cd9565b9b9a5050505050505050505050565b60006001600160a01b0387168252856020830152846040830152831515606083015260a06080830152611e4160a0830184611cd9565b979650505050505050565b901515815260200190565b60008315158252604060208301526109c36040830184611cd9565b90815260200190565b9182526001600160a01b0316602082015260400190565b6020808252603f908201527f4572723a2074686973206174746573746174696f6e20646f6573206e6f74206d60408201527f61746368206f6e652077686963682070726f7669646564206279207573657200606082015260800190565b6020808252600e908201527f416c726561647920657869737473000000000000000000000000000000000000604082015260600190565b6020808252602b908201527f4572723a2052657175657374207461736b2068617320616c726561647920626560408201527f656e2066696e6973686564000000000000000000000000000000000000000000606082015260800190565b60208082526039908201527f4572723a206b65657065722063616e206f6e6c79207375626d6974206f6e636560408201527f20746f207468652073616d652072657175657374207461736b00000000000000606082015260800190565b60208082526031908201527f417574683a20796f752063616e206e6f74207061737320617574686f72697a6160408201527f74696f6e20766572696669636174696f6e000000000000000000000000000000606082015260800190565b6020808252601d908201527f4572723a20726f6f744861736820616c726561647920636c61696d6564000000604082015260600190565b918252602082015260400190565b60405181810167ffffffffffffffff811182821017156120a4576120a4612129565b604052919050565b600067ffffffffffffffff8211156120c6576120c6612129565b5060209081020190565b600063ffffffff8083168185168083038211156120ef576120ef612113565b01949350505050565b600060001982141561210c5761210c612113565b5060010190565b634e487b7160e01b600052601160045260246000fd5b634e487b7160e01b600052604160045260246000fd5b6001600160a01b038116811461188257600080fd5b801515811461188257600080fd5b6001600160801b038116811461188257600080fdfea264697066735822122069636f194270432039e4d91e585c599702037b9fe3edf6cd5cabbfe37f4cda0f64736f6c63430008000033",
  "linkReferences": {
    "contracts/utils/AddressesUtils.sol": {
      "AddressesUtils": [
        {
          "length": 20,
          "start": 2588
        },
        {
          "length": 20,
          "start": 5625
        },
        {
          "length": 20,
          "start": 5811
        }
      ]
    },
    "contracts/utils/Bytes32sUtils.sol": {
      "Bytes32sUtils": [
        {
          "length": 20,
          "start": 1844
        },
        {
          "length": 20,
          "start": 3319
        },
        {
          "length": 20,
          "start": 3499
        },
        {
          "length": 20,
          "start": 5112
        },
        {
          "length": 20,
          "start": 5256
        },
        {
          "length": 20,
          "start": 5443
        }
      ]
    }
  },
  "deployedLinkReferences": {
    "contracts/utils/AddressesUtils.sol": {
      "AddressesUtils": [
        {
          "length": 20,
          "start": 2378
        },
        {
          "length": 20,
          "start": 5415
        },
        {
          "length": 20,
          "start": 5601
        }
      ]
    },
    "contracts/utils/Bytes32sUtils.sol": {
      "Bytes32sUtils": [
        {
          "length": 20,
          "start": 1634
        },
        {
          "length": 20,
          "start": 3109
        },
        {
          "length": 20,
          "start": 3289
        },
        {
          "length": 20,
          "start": 4902
        },
        {
          "length": 20,
          "start": 5046
        },
        {
          "length": 20,
          "start": 5233
        }
      ]
    }
  }
}